S00D00004C656473322E737265635D
S11300000C94FE000C9408010C9408010C94080153
S11300100C9408010C9408010C9408010C94080138
S11300200C9408010C9408010C9408010C94080128
S11300300C9408010C9408010C9408010C94080118
S11300400C9408010C9408010C9408010C94080108
S11300500C9408010C9408010C9408010C940801F8
S11300600C9408010C9408010C9408010C940801E8
S11300700C9408010C9408010C9408010C940801D8
S11300800C9408010C9408010C9408010C940801C8
S11300900C9408010C9408010C9408010C940801B8
S11300A00C9408010C9408010C9408010C940801A8
S11300B00C9408010C9408010C9408010C94080198
S11300C00C9408010C9408010C9408010C94080188
S11300D00C9408010C9408010C9408010C94080178
S11300E00C9408010C9408010C9408010C94080168
S11300F00C9408010C9408010C9408010C94080158
S11301000C9408010C9408010C9408010C94080147
S11301100C9408010C9408010C9408010C94080137
S11301200C9408010C9408010C9408010C94080127
S11301300C9408010C9408010C9408010C94080117
S11301400C9408010C9408010C9408010C94080107
S11301500C9408010C9408010C9408010C940801F7
S11301600C9408010C9408010C9408010C940801E7
S11301700C9408010C9408010C9408010C940801D7
S11301800C9408010C9408010C9408010C940801C7
S11301900C9408010C9408010C9408010C940801B7
S11301A00C9408010C9408010C9408010C940801A7
S11301B00C9408010C9408010C9408010C94080197
S11301C00C9408010C9408010C9408010C94080187
S11301D00C9408010C9408010C9408010C94080177
S11301E00C9408010C9408010C9408010C94080167
S11301F00C9408010C9408010C94080111241FBEEE
S1130200CFEFCDBFD7E2DEBF0E942A010C940A02D1
S11302100C9400000F931F9360930406072F182F6C
S1130220292F332700932406DC01CB01072E7CE021
S1130230B695A795979587957A95D1F7702D809364
S113024044068BE792E90197F1F700C000001F9183
S11302500F910895CF93DF93CDB7DEB72897CDBF25
S1130260DEBF8FEF809300069FE09093200680937B
S11302704006812C912C5401412C512C320168945C
S113028063F881E090E0A0E0B0E089839A83AB83D7
S1130290BC838D839E83AF83B887C12CD12C760118
S11302A0C3944AC0812C912C5401412C512C32010D
S11302B0689463F881E090E0A0E0B0E089839A83D9
S11302C0AB83BC838D839E83AF83B887C12CD12C31
S11302D07601C39431C0812C912C5401412C512CB2
S11302E03201689463F881E090E0A0E0B0E0898393
S11302F09A83AB83BC838D839E83AF83B887C12CE1
S1130300D12C7601C39418C0812C912C5401412C1A
S1130310512C3201689463F881E090E0A0E0B0E0F1
S113032089839A83AB83BC838D839E83AF83B88791
S1130330C12CD12C7601C394C701B601682979294F
S11303408A299B290E940A01C414D504E604F704EF
S113035020F58D819E81AF81B885892B8A2B8B2BCB
S1130360E1F09FEF89169906A906B906B1F0CC0C05
S1130370DD1CEE1CFF1C4C145D046E047F04E1F6CE
S11303808C289D28AE28BF28769467945794479468
S11303901D821E821F821886CFCF89819A81AB81EC
S11303A0BC818C159D05AE05BF0508F07BCF8D8102
S11303B09E81AF81B885892B8A2B8B2B09F08BCF3B
S11303C09FEF89169906A906B90609F49DCFF694FC
S11303D0E794D794C79489819A81AB81BC818C15A9
S11303E09D05AE05BF0509F0A7CF8C289D28AE2832
S11303F0BF28880F991FAA1FBB1F89839A83AB83C9
S1130400BC8381E090E0A0E0B0E08D839E83AF8365
S10B0410B88792CFF894FFCFE6
S9030000FC
