S00D00004C656473312E737265635E
S11300000C94FE000C9408010C9408010C94080153
S11300100C9408010C9408010C9408010C94080138
S11300200C9408010C9408010C9408010C94080128
S11300300C9408010C9408010C9408010C94080118
S11300400C9408010C9408010C9408010C94080108
S11300500C9408010C9408010C9408010C940801F8
S11300600C9408010C9408010C9408010C940801E8
S11300700C9408010C9408010C9408010C940801D8
S11300800C9408010C9408010C9408010C940801C8
S11300900C9408010C9408010C9408010C940801B8
S11300A00C9408010C9408010C9408010C940801A8
S11300B00C9408010C9408010C9408010C94080198
S11300C00C9408010C9408010C9408010C94080188
S11300D00C9408010C9408010C9408010C94080178
S11300E00C9408010C9408010C9408010C94080168
S11300F00C9408010C9408010C9408010C94080158
S11301000C9408010C9408010C9408010C94080147
S11301100C9408010C9408010C9408010C94080137
S11301200C9408010C9408010C9408010C94080127
S11301300C9408010C9408010C9408010C94080117
S11301400C9408010C9408010C9408010C94080107
S11301500C9408010C9408010C9408010C940801F7
S11301600C9408010C9408010C9408010C940801E7
S11301700C9408010C9408010C9408010C940801D7
S11301800C9408010C9408010C9408010C940801C7
S11301900C9408010C9408010C9408010C940801B7
S11301A00C9408010C9408010C9408010C940801A7
S11301B00C9408010C9408010C9408010C94080197
S11301C00C9408010C9408010C9408010C94080187
S11301D00C9408010C9408010C9408010C94080177
S11301E00C9408010C9408010C9408010C94080167
S11301F00C9408010C9408010C94080111241FBEEE
S1130200CFEFCDBFD7E2DEBF0E942A010C9472016A
S11302100C9400000F931F9360930406072F182F6C
S1130220292F332700932406DC01CB01072E7CE021
S1130230B695A795979587957A95D1F7702D809364
S113024044068FE493EC0197F1F700C000001F917E
S11302500F9108958FEF809300069FE090932006FE
S113026080934006812C912C54018394C12CD12C71
S11302707601C3940DC0812C912C540109C0812CAA
S1130280912C5401839404C0812C912C54018394A7
S1130290C701B6010E940A01C114D10488E0E8062E
S11302A0F10480F481149104A104B10459F0CC0C3C
S11302B0DD1CEE1CFF1CC114D10488E0E806F10427
S11302C039F7D9CF82E0C816D104E104F104B8F2B9
S11302D081149104A104B104B9F6F694E794D79477
S10B02E0C794D6CFF894FFCFB8
S9030000FC
