S00D00004C656473332E737265635C
S11300000C94FE000C9408010C9408010C94080153
S11300100C9408010C9408010C9408010C94080138
S11300200C9408010C9408010C9408010C94080128
S11300300C9408010C9408010C9408010C94080118
S11300400C9408010C9408010C9408010C94080108
S11300500C9408010C9408010C9408010C940801F8
S11300600C9408010C9408010C9408010C940801E8
S11300700C9408010C9408010C9408010C940801D8
S11300800C9408010C9408010C9408010C940801C8
S11300900C9408010C9408010C9408010C940801B8
S11300A00C9408010C9408010C9408010C940801A8
S11300B00C9408010C9408010C9408010C94080198
S11300C00C9408010C9408010C9408010C94080188
S11300D00C9408010C9408010C9408010C94080178
S11300E00C9408010C9408010C9408010C94080168
S11300F00C9408010C9408010C9408010C94080158
S11301000C9408010C9408010C9408010C94080147
S11301100C9408010C9408010C9408010C94080137
S11301200C9408010C9408010C9408010C94080127
S11301300C9408010C9408010C9408010C94080117
S11301400C9408010C9408010C9408010C94080107
S11301500C9408010C9408010C9408010C940801F7
S11301600C9408010C9408010C9408010C940801E7
S11301700C9408010C9408010C9408010C940801D7
S11301800C9408010C9408010C9408010C940801C7
S11301900C9408010C9408010C9408010C940801B7
S11301A00C9408010C9408010C9408010C940801A7
S11301B00C9408010C9408010C9408010C94080197
S11301C00C9408010C9408010C9408010C94080187
S11301D00C9408010C9408010C9408010C94080177
S11301E00C9408010C9408010C9408010C94080167
S11301F00C9408010C9408010C94080111241FBEEE
S1130200CFEFCDBFD7E2DEBF0E9424010C94DF0103
S11302100C94000060930406272F2F70209324066B
S1130220DC01CB01072E7CE0B695A79597958795C1
S11302307A95D1F7702D809344068FE295E7019764
S1130240F1F700C000000895CF93DF9300D000D0F1
S1130250CDB7DEB781E090E0A0E0B0E089839A8377
S1130260AB83BC8389819A81AB81BC81072E73E106
S1130270880F991FAA1FBB1F7A95D1F7702D898308
S11302809A83AB83BC838FEF809300069FE09093A7
S113029020068093400610E0C12CD12C7601C39433
S11302A0C701B6010E940A0111111FC089819A81F8
S11302B0AB81BC818C219D21AE21BF21892B8A2B4E
S11302C08B2B71F0F694E794D794C79489819A8123
S11302D0AB81BC81C82AD92AEA2AFB2A11E04CC086
S11302E0CC0CDD1CEE1CFF1C47C0113079F4C0FEA1
S11302F008C0CC0CDD1CEE1CFF1C6894C0F810E098
S11303003BC0F694E794D794C79436C0812F83708A
S1130310823019F5CC0CDD1CEE1CFF1C89819A81FE
S1130320AB81BC81880F991FAA1FBB1F0197A1092C
S1130330B109C822D922EA22FB2212FD1AC08981FE
S11303409A81AB81BC818C219D21AE21BF21892B57
S11303508A2B8B2B89F014600FC0833069F4F694D8
S1130360E794D794C79412FD06C0C0FE05C014607C
S113037003C013E001C012E089819A81AB81BC8182
S1130380880F991FAA1FBB1F0197A109B109C8169D
S1130390D906EA06FB0611F4166082CF89819A8198
S11303A0AB81BC81C816D906EA06FB0609F078CFF2
S11303B0812F8370823009F073CF10E071CFF894ED
S10503C0FFCF69
S9030000FC
